S02200007363686564756C65725F646973706C61795F6B6579626F6172642E737265633E
S11300000C942A000C9447000C9447000C9447006D
S11300100C9447000C9447000C9447000C94470040
S11300200C9447000C9447000C9449000C9447002E
S11300300C9447000C9447000C9447000C94470020
S11300400C9447000C9447000C9447000C94470010
S11300500C94470011241FBECFE5D8E0DEBFCDBF0E
S113006010E0A0E6B0E0E4E8F9E002C005900D92EB
S1130070A837B107D9F710E0A8E7B0E001C01D9296
S1130080A83BB107E1F70E9475000C94C0040C94DE
S113009000001F920F920FB60F9211242F933F93DB
S11300A04F935F936F937F938F939F93AF93BF937C
S11300B0EF93FF93CF93DF93CDB7DEB70E94110385
S11300C00E94AD01DF91CF91FF91EF91BF91AF916C
S11300D09F918F917F916F915F914F913F912F915C
S11300E00F900FBE0F901F901895CF93DF93CDB74D
S11300F0DEB787E390E02FEFFC0120838AE390E0F2
S11301002FEFFC01208388E390E02FEFFC01208394
S11301108BE390E02FEFFC0120830E94080228EA81
S113012030E080E062E3A90120E030E00E947C033B
S113013027E731E081E062E3A90120E030E00E949A
S11301407C030E94DA0380E090E0DF91CF91089570
S1130150CF93DF93CDB7DEB72E970FB6F894DEBFFB
S11301600FBECDBF1A8219821C821B8285E390E0E8
S1130170FC01108284E390E02FE0FC01208385E3FE
S113018090E020EFFC0120831E821D8205C08D813A
S11301909E8101969E838D838D819E8184319105FC
S11301A0B4F383E390E0FC01808182958F70882F03
S11301B090E09C838B8385E390E0FC01108284E3D0
S11301C090E020EFFC01208385E390E02FE0FC0128
S11301D0208318861F8205C08F8198850196988791
S11301E08F838F81988584319105B4F383E390E004
S11301F0FC018081882F90E09A8389831A8619866E
S11302000EC08B819C8199230CF40196959587955A
S11302109C838B8389859A8501969A8789878B81AC
S11302209C8122E030E0B9010E94AD048130910547
S113023029F489859A85843091051CF31C861B86D4
S11302400EC089819A8199230CF40196959587951E
S11302509A8389838B859C8501969C878B8789816A
S11302609A8122E030E0B9010E94AD048130910509
S113027029F48B859C85843091051CF389859A85A6
S11302808430910529F08B859C858430910519F47F
S11302901E861D860EC089859A859C01220F331FF8
S11302A0220F331F8B859C85820F931F01969E8797
S11302B08D8720917300309174008D859E85281759
S11302C0390761F08D859E85909374008093730047
S11302D081E090E090937600809375002E960FB69F
S11302E0F894DEBF0FBECDBFDF91CF910895CF93B9
S11302F0DF9300D0CDB7DEB7809175009091760082
S11303008130910529F51092760010927500809144
S11303107300909174009A83898389819A812AE079
S113032030E0B9010E94AD04909372008093710093
S113033089819A812AE030E0B9010E94AD049B01D1
S11303403A83298389819A819093700080936F0006
S11303500F900F90DF91CF910895CF93DF930F9279
S1130360CDB7DEB780917C0090917D00880F991FF6
S113037085599F4FFC0180819181805A9F4FFC01D8
S11303808081898380917A0090917B0081309105EE
S113039051F480917C0090917D008230910519F494
S11303A089818E7F89838BE390E02FEFFC0120838A
S11303B088E390E040917C0050917D0021E030E0A2
S11303C0042E02C0220F331F0A94E2F72095FC0189
S11303D020838BE390E02981FC01208380917C00C1
S11303E090917D00019690937D0080937C00809194
S11303F07C0090917D0024E030E0B9010E94AD04BE
S113040090937D0080937C000F90DF91CF910895AD
S1130410CF93DF93CDB7DEB783E590E023E530E0FB
S1130420F90120812860FC0120838CE590E02AEF0B
S1130430FC012083789489E590E029E530E0F90116
S113044020812260FC01208383E590E023E530E0F5
S1130450F90120812360FC012083DF91CF9108956D
S1130460CF93DF9300D0CDB7DEB780917800909121
S113047079009A83898389819A8127E2803192075E
S11304800CF459C010927B0010927A0089819A81F1
S11304902AE030E0B9010E94AD049B013A8329832C
S11304A089819A812AE030E0B9010E94AD049093D9
S11304B072008093710089819A812AE030E0B90149
S11304C00E94AD049B013A83298389819A812AE0A1
S11304D030E0B9010E94AD049093700080936F00E6
S11304E089819A812AE030E0B9010E94AD049B0120
S11304F03A83298389819A812AE030E0B9010E94F4
S1130500AD0490936E0080936D0089819A812AE0F6
S113051030E0B9010E94AD049B013A8329838981AB
S11305209A812AE030E0B9010E94AD0490936C00F6
S113053080936B0068C081E090E090937B0080938F
S11305407A0089819A812AE030E0B9010E94AD04E1
S1130550909372008093710089819A812AE030E03F
S1130560B9010E94AD049B013A83298389819A8150
S11305702AE030E0B9010E94AD04909370008093AA
S11305806F0089819A812AE030E0B9010E94AD04AC
S11305909B013A83298389819A812AE030E0B90159
S11305A00E94AD0490936E0080936D0089819A81BE
S11305B02AE030E0B9010E94AD049B013A8329830B
S11305C089819A812AE030E0B9010E94AD049093B8
S11305D06C0080936B0080916B0090916C0000978D
S11305E091F48AE090E090936C0080936B0080918A
S11305F06D0090916E00009731F48AE090E0909342
S11306006E0080936D00809178009091790001963E
S113061090937900809378000F900F90DF91CF91A1
S11306200895CF93DF9300D0CDB7DEB71A82198235
S113063058C029813A81C901880F991F880F991FD1
S1130640880F991F821B930B8B579F4FFC0180814E
S11306509181AC014F5F5F4F29813A81C901880FB5
S1130660991F880F991F880F991F821B930B8B5713
S11306709F4FFC015183408329813A81C901880F2E
S1130680991F880F991F880F991F821B930B8B57F3
S11306909F4FFC014081518129813A81C901880F12
S11306A0991F880F991F880F991F821B930B8C57D2
S11306B09F4FFC018081282F30E0CA01B9010E94BC
S11306C09904009749F480917E0090917F000196EF
S11306D090937F0080937E0089819A8101969A830A
S11306E0898389819A81883091050CF4A2CF0F9077
S11306F00F90DF91CF910895CF93DF9300D000D076
S113070000D0CDB7DEB789836A835C834B833E8395
S11307102D838981282F30E0C901880F991F880F04
S1130720991F880F991F821B930B80589F4F2B8111
S11307303C81FC01318320838981282F30E0C90169
S1130740880F991F880F991F880F991F821B930B7D
S11307508E579F4F2D813E81FC01318320838981F7
S1130760282F30E0C901880F991F880F991F880F1F
S1130770991F821B930B8C579F4F2A81FC01208366
S11307808981282F30E0C901880F991F880F991F8C
S1130790880F991F821B930B8B579F4FFC0111826B
S11307A0108226960FB6F894DEBF0FBECDBFDF9140
S11307B0CF910895CF93DF9300D00F92CDB7DEB7DA
S11307C0000080917E0090917F000097D1F38FEF1D
S11307D08983F8941B821A827BC02A813B81C901D8
S11307E0880F991F880F991F880F991F821B930BDD
S11307F08C579F4FFC018081882309F464C02A81AF
S11308003B81C901880F991F880F991F880F991F71
S1130810821B930B8B579F4FFC01408151812A818E
S11308203B81C901880F991F880F991F880F991F51
S1130830821B930B8C579F4FFC018081882F90E083
S11308404817590708F43FC02A813B81C901880F22
S1130850991F880F991F880F991F821B930B8B5721
S11308609F4FFC01408151812A813B81C901880F3E
S1130870991F880F991F880F991F821B930B8C5700
S11308809F4FFC018081882F90E0481B590B2A81DF
S11308903B81C901880F991F880F991F880F991FE1
S11308A0821B930B8B579F4FFC01518340838A819A
S11308B0898380917E0090917F00019790937F00BF
S11308C080937E000BC08A819B8101969B838A83DF
S11308D08A819B81883091050CF47FCF789489813B
S11308E0282F332727FD3095C901880F991F880FBA
S11308F0991F880F991F821B930B80589F4FFC01EF
S1130900408151818981282F332727FD3095C901E2
S1130910880F991F880F991F880F991F821B930BAB
S11309208E579F4FFC0180819181FA010995000047
S113093047CFAA1BBB1B51E107C0AA1FBB1FA617A9
S1130940B70710F0A61BB70B881F991F5A95A9F774
S113095080959095BC01CD01089597FB092E07263B
S11309600AD077FD04D0E5DF06D000201AF4709594
S113097061957F4F0895F6F7909581959F4F08955F
S1070980F894FFCF15
S1130984039F250D9949411F0119FF0A000A00001C
S10B09940000000C000100004A
S9030000FC
